:0400000080317928AA
:100008007E14803140017F08F4003F30F000700812
:100018008B054E018C1E1F284001CF01CF0ADF300F
:10002800F00070084E018C054B019C019D012030A9
:100038004E01960070288F1E702842011D1D2D2824
:10004800F901F90AF501F6011908F0007008F8003D
:1000580070281908F0007008F800682875087604F8
:10006800031D45287808031D4528EF3086002130F8
:1000780087007808C03F0130F5000030F600F9012C
:1000880070280130F5000030F6007028EF30F000DD
:100098002130F10075087007F2007608713DF30011
:1000A8007208860073088700780881000130F50718
:1000B8000030F63D02307602013003197502031C48
:1000C8007028F901F90A70287908003A03194A28B2
:1000D800013A031932287028C030F00070088B04E8
:1000E80074084001FF007E10090080317B288331AD
:1000F800EC238031F9008331E9238031D00083314A
:10010800EA238031D1008331EB238031D200EF30F4
:100118008400213085000130FE000230FF00833169
:10012800BD238031F501F601F701F8014130840063
:10013800003085000F30FE000030FF008331BD2302
:100148007E1040018131F92940014D08CD0AB100E6
:1001580004303102031C5229CD0152290A30A00073
:100168000030A1005108A3005008A20083312323C6
:10017800803140012008B1003108AE0000308231E2
:100188005E2208000030400151020A300319500273
:10019800031C03290A30A6000030A7000A30A0007B
:1001A8000030A1005108A3005008A2008331232386
:1001B800803140012009B1002109B200B10A0319B8
:1001C800B20A6430A0000030A1005108A300500812
:1001D800A200833123238031400131082007A80081
:1001E8003208213DA9008231EE22803140012608E3
:1001F800B3003308AE00013082315E2208000A30B5
:100208004001B1003108AE00013082315E220800A1
:10021800003040015102643003195002031C49297F
:100228006430A6000030A7006430A0000030A100B0
:100238005108A3005008A2008331232380314001D4
:100248002009B1002109B200B10A0319B20AE83045
:10025800A0000330A1005108A3005008A200833178
:1002680023238031400131082007A8003208213DAE
:10027800A9008231EE22803140012608B3003308FC
:10028800AE00023082315E2208000A304001B1001F
:100298003108AE00023082315E22080040014D086C
:1002A800003A0319B228013A0319C628033A031978
:1002B8000C295E29080040018C1F0C1B8B2944085F
:1002C800031D77294308031D7729E83041020330CD
:1002D800423B031877290130C1070030C23D003086
:1002E800C33D0030C43DE8304106033003194206DF
:1002F80043044404031D82290C30080003304106DE
:10030800420443044404031DF729043008008C1BED
:10031800B5294C08031DA1294B08031DA129E83064
:10032800490203304A3B0318A1290130C9070030AC
:10033800CA3D0030CB3D0030CC3DE83049060330A3
:1003480003194A064B044C04031DAC290630080067
:10035800033049064A044B044C04031DF7290230B4
:1003680008000C1BDF294808031DCB294708031D7B
:10037800CB29E83045020330463B0318CB2901302E
:10038800C5070030C63D0030C73D0030C83DE830E5
:10039800450603300319460647044804031DD629B9
:1003A8000330080003304506460447044804031D8B
:1003B800F729013008000030C4000030C3000030C5
:1003C800C2000030C1000030CC000030CB0000304B
:1003D800CA000030C9000030C8000030C700003033
:1003E800C6000030C500003008004001BC010030E4
:1003F800C0000030BF000030BE000030BD0000303B
:10040800BB000030BA000030B9000030B800D2019B
:10041800D20A8331E52381318331A0238131400120
:10042800D201D20AEF30860021308700433101081B
:100438004001B400B501B601B7013708C00036085D
:10044800BF003508BE003408BD0082303D063E04BA
:100458003F0440040319342A3D08B4003408D2008C
:100468004F08031D3C2A162A8031A82081314C2AC6
:1004780081315F218131013A03194C2A033A03196A
:100488004C2A013A0319382A053A03194C2A4C2AEE
:1004980040015208B400B5013408A0003508A10095
:1004A8008331DF2381318031A82081314001CF01A0
:1004B8006400162A4001B0008331AF2382310A302C
:1004C80040012E02031808006F2A1014A02A901465
:1004D800A02A1015A02A3008003A0319692A013AFF
:1004E80003196B2A033A03196D2AA02AA02A0F16AA
:1004F8000800BC30AF002F088F0408004430AF005C
:100508002F088F0408002430AF002F088F0408003C
:10051800A830AF002F088F0408008F168E16080029
:100528008E160800B430AF002F088F040800A030E2
:10053800AF002F088F0408002E0884000A30040238
:1005480003180800833104358C3E8200080003300C
:100558004001A000200895050330A00020087E0176
:10056800D90503304001A00020087E01DA050330D8
:100578004001A00020087E01DB05DF304001A0001B
:1005880020089405DF30A00020087E01CE05DF306A
:100598004001A00020087E01CF05DF304001A00007
:1005A80020087E01D005F8304001A00020089605FB
:1005B800F830A00020087E01E405F8304001A000D2
:1005C80020087E01E505F8304001A00020087E01E2
:1005D800E60508004001AB01AC0126082704031911
:1005E8001E2BAD01AD0AA71B032B0130A635A70DA5
:1005F800890BFA2A0130AA002A08AD07F72A013028
:10060800AB35AC0D890B042B27082902031D0E2BD3
:1006180026082802031C152B2608A8022708A93B30
:100628002B140130A736A60C890B162B0130AD020E
:10063800031D032B2C08A7002B08A6000800400167
:100648002008210403194B2BA501A50AA11B362B51
:100658000130A035A10D890B2D2B0130A4002408F1
:10066800A5072A2B21082302031D3C2B2008220260
:10067800031C422B2008A2022108A33B0130A1360B
:10068800A00C890B432B0130A502031D362B230830
:10069800A1002208A0000800C0304001A0002008E6
:1006A80094043F30A00020087E01CE0517307D015C
:1006B800CB001630CC0042019F151F309B009C01D7
:1006C80004309E00D0304001A000200842019D0463
:1006D80020304E019900C0304001A00020088B0452
:1006E8000800FE304001A00020089205FE30A0005E
:1006F80020087E01B805FE304001A00020087E01D8
:10070800B905FE304001A00020087E01BA050800A6
:1007180082317B2A82317D2A8231822A8231872A5C
:1007280082318C2A8231912A8231942A8231962A06
:100738008231AA2A82319B2A8231AB2283318331CA
:10074800D42383318331752383318331C9238331A2
:1007580083315023080003304001A00020088F0592
:10076800DF30A00020088E05F830A0002008900592
:1007780008006400800101310130FE020030FF3BB7
:100788007F087E0403190034BE2B70304B019F0094
:1007980090309E009C019D0120304E01960008007B
:1007A800C0304001A000200892043F30A00020087B
:1007B8007E01B805080040012108D1002008D000BA
:1007C8000800063051019300080001340034013458
:0207D8000134EA
:020000040001F9
:0A000E008C3F3E3FFF3FFF1FFF3F06
:00000001FF
